:100000000C9446000C9466000C9466000C946600F8
:100010000C9466000C9466000C9466000C946600C8
:100020000C9466000C94D4080C9409090C94660096
:100030000C9466000C9466000C9466000C946600A8
:100040000C9466000C9466000C949E080C94A80214
:100050000C946F080C9466000C9466000C94660077
:100060000C9466000C9466000C9466000C94660078
:100070000C9466000C9466000C9466000C94660068
:100080000C9466000C9466000C94660011241FBE4C
:10009000CFEFD0E1DEBFCDBF14E0A0E0B1E0EEE0F5
:1000A000F5E100E00BBF02C007900D92AA32B10744
:1000B000D9F71BBE14E0AAE2B4E001C01D92AB3E2A
:1000C000B107E1F70E9468000C94850A0C940000C7
:1000D000DF93CF9300D000D0CDB7DEB70E942802C7
:1000E0000E947D020E94330A81E080932A0480915D
:1000F0002A04882349F080E00E943E09EAE2F0E009
:1001000088EF808310922A0480912C04882349F080
:1001100081E00E943E09EAE2F0E088EF80831092DD
:100120002C0480912D04882349F082E00E943E092E
:10013000EAE2F0E088EF808310922D0480912E0493
:10014000882349F083E00E943E09EAE2F0E088EF6C
:10015000808310922E0480913004882349F081E03E
:1001600080933604EAE2F0E088EF80831092300456
:1001700080912B04882309F460C180913104882385
:10018000C9F080915304813321F481E080932C04E1
:1001900052C180915304823321F481E080932D0475
:1001A0004AC180915304833309F045C181E08093B3
:1001B0002E0441C180913604882309F05FC08091EC
:1001C0005304882F90E0C0979C838B838B819C8104
:1001D000181619060CF042C08B819C818A3091055B
:1001E000ECF58B819C81FC01E15EFB4F80818823D3
:1001F00021F4809133048823D1F48B819C81FC010C
:10020000E15EFB4F8081813021F4809134048823AA
:1002100071F48B819C81FC01E15EFB4F8081823017
:1002200009F009C180913504882309F404C1ECE286
:10023000F0E08AE080838B818093540480913304C2
:10024000882321F480913404882321F081E0809375
:100250003004F1C081E080932E04EDC080915304FE
:10026000803209F0E8C081E080932A04809135044F
:10027000882309F4E0C010923804DDC08091360470
:10028000882309F4D8C080915304882F90E0C09748
:100290009A83898389819A8199230CF486C0898104
:1002A0009A818A3091050CF080C0809133048823B4
:1002B00041F180915404282F30E060913704462F9B
:1002C00050E07981C901880F991F820F931F880F11
:1002D000991F840F951FFC01EF56FB4F7083862FEB
:1002E0008F5F80933704ECE2F0E0809153048083C9
:1002F00080913704863008F49EC081E080933004FA
:100300009AC080913404882389F180915404282F65
:1003100030E060913704462F50E07981C901880FA1
:10032000991F820F931F880F991F840F951FFC013F
:10033000EB5AFB4F7083862F8F5F80933704809139
:100340003704843030F4ECE2F0E080915304808391
:1003500072C0ECE2F0E08AE280838091370486305C
:1003600008F469C081E08093300465C08091350451
:10037000882309F460C030913804832F90E02981EC
:10038000FC01E35BFB4F2083832F8F5F8093380456
:10039000ECE2F0E08AE2808380913804863008F451
:1003A0004AC081E08093300446C080915304883075
:1003B00091F4ECE2F0E08DE08083809133048823B7
:1003C00021F480913404882319F01092370433C04B
:1003D0001092380430C080915304803261F58091CE
:1003E0003704882321F0ECE2F0E08AE080838091FA
:1003F0003304882321F480913404882319F0109267
:10040000370402C01092380480913304882321F00D
:1004100081E080932C040FC080913404882321F064
:1004200081E080932D0407C080913504882319F062
:1004300081E080932A0410922B0480912F0488235A
:1004400009F455CE81E080932A0410922F044FCEF8
:10045000DF93CF93CDB7DEB7EAE6F0E01082EAE5AE
:10046000F0E01082E9E5F0E01082ECE3F0E01082C9
:10047000E7E5F0E01082EDE7F0E01082EAE2F0E07C
:100480001082EAE9F0E01082EDE2F0E01082E4E7A9
:10049000F0E01082E8E2F0E010827894EBE3F0E024
:1004A0001082EAE3F0E01082E8E3F0E01082E7E394
:1004B000F0E01082E5E3F0E01082E4E3F0E0108287
:1004C000E2E3F0E01082E1E3F0E01082E3E2F0E04A
:1004D0001082E2E2F0E01082E2E6F0E01082E1E673
:1004E000F0E01082E5E6F0E08FEF8083E4E6F0E0F4
:1004F0008FEF8083CF91DF910895DF93CF93CDB7B6
:10050000DEB7EBE2F0E01082E5E9F0E086E0808320
:10051000E0E9F0E01082E9E2F0E083E38083EBE9D8
:10052000F0E01082EAE9F0E088E18083EDE9F0E0B4
:1005300086E08083E8E9F0E01082E9E9F0E083E317
:100540008083EAE2F0E088EF8083CF91DF91089525
:100550001F920F920FB60F9200905B000F92112422
:100560002F933F934F935F936F937F938F939F93BB
:10057000AF93BF93EF93FF93DF93CF93CDB7DEB7E6
:1005800080913104882329F1809147049091480497
:10059000FC01EA5FFE4F8081882349F4EAE2F0E043
:1005A00088ED8083109248041092470482C5ACE223
:1005B000B0E02091470430914804F901EA5FFE4F12
:1005C00080818C93C90101969093480480934704DD
:1005D00070C580913604882309F01BC280913304D2
:1005E000882309F469C08091470490914804FC0174
:1005F000E456FE4F8081882309F04CC08091290485
:10060000882339F1809129048A3018F580912904D2
:10061000882F90E0FC01E15EFB4F8081813029F45E
:10062000ECE2F0E088E580832FC080912904882FD8
:1006300090E0FC01E15EFB4F8081882329F4ECE22D
:10064000F0E08FE4808320C0ECE2F0E08CE4808373
:100650001BC0809129048A3029F4ECE2F0E08DE09F
:10066000808312C0809129048B3071F4ECE2F0E0B9
:100670008AE08083EAE2F0E088ED8083109248040B
:100680001092470410922904809129048F5F80936F
:1006900029040FC5ACE2B0E0209147043091480432
:1006A000F901E456FE4F80818C93C9010196909325
:1006B000480480934704FDC480913404882309F4DE
:1006C00069C08091470490914804FC01E750FE4FB7
:1006D0008081882309F04CC080912904882339F156
:1006E000809129048A3018F580912904882F90E0A0
:1006F000FC01E15EFB4F8081813029F4ECE2F0E007
:1007000088E580832FC080912904882F90E0FC0128
:10071000E15EFB4F8081882329F4ECE2F0E08FE476
:10072000808320C0ECE2F0E08CE480831BC08091E9
:1007300029048A3029F4ECE2F0E08DE0808312C0D5
:10074000809129048B3071F4ECE2F0E08AE0808340
:10075000EAE2F0E088ED80831092480410924704AA
:1007600010922904809129048F5F80932904A1C4E9
:10077000ACE2B0E02091470430914804F901E75021
:10078000FE4F80818C93C901019690934804809319
:1007900047048FC480913504882309F48AC480916A
:1007A0003804863008F40BC180915404882F90E0FF
:1007B000FC01E15EFB4F8081823009F000C1809135
:1007C000470490914804FC01E45FFC4F808188233A
:1007D00009F0D3C08091490490914A04009731F503
:1007E0002091390430913A0480915404882F90E08C
:1007F000880F991FFC01E952FB4F80819181A9016B
:10080000481B590BCA0190933C0480933B04809190
:100810003B0490913C040E94E009ECE2F0E08091FE
:100820003D0490913E04805D80839DC08091490489
:1008300090914A048130910549F4ECE2F0E0809116
:100840003F0490914004805D80838DC08091490475
:1008500090914A048230910529F4ECE2F0E08AE3B9
:10086000808381C08091490490914A04833091052E
:1008700049F4ECE2F0E08091410490914204805D03
:10088000808371C08091490490914A04843091051D
:1008900049F4ECE2F0E08091430490914404805DDF
:1008A000808361C08091490490914A04853091050C
:1008B00029F4ECE2F0E080E2808355C080914904A5
:1008C00090914A048630910579F4ECE2F0E0809151
:1008D0003B0490913C042CE330E0B9010E945E0A95
:1008E000CB018F5C80833FC08091490490914A0482
:1008F0008730910529F4ECE2F0E084E2808333C094
:100900008091490490914A048830910529F4ECE2E1
:10091000F0E08DE0808327C0ECE2F0E08AE08083A5
:10092000EAE2F0E088ED808380915404882F90E023
:10093000FC01E15EFB4F108280915404882F90E00F
:10094000FC01E353FB4F108281E080932A04109254
:10095000380410924804109247048FEF9FEF909351
:100960004A04809349048091490490914A04019675
:1009700090934A04809349049CC3809147049091CA
:100980004804009739F4ECE2F0E080915404805D73
:1009900080830BC0ACE2B0E08091470490914804A2
:1009A000FC01E45FFC4F80818C938091470490911F
:1009B0004804019690934804809347047AC3809139
:1009C000470490914804FC01EC5AFD4F8081882334
:1009D00071F4EAE2F0E088ED808381E080933604F0
:1009E00010923804109248041092470462C3ACE29B
:1009F000B0E02091470430914804F901EC5AFD4FD2
:100A000080818C93C9010196909348048093470498
:100A100050C380913604882309F44BC3809133047A
:100A2000882329F480913404882309F4FFC180913C
:100A30003704863008F4C5C180913304882309F453
:100A400041C08091470490914804FC01E457FC4F59
:100A50008081882331F5EAE2F0E088ED808380919F
:100A60005404882F90E0FC01E15EFB4F81E080831D
:100A700080915404882F90E02091390430913A04F9
:100A8000880F991FFC01E952FB4F3183208381E0DD
:100A900080932A041092480410924704109237045D
:100AA00011C0ACE2B0E02091470430914804F90154
:100AB000E457FC4F80818C93C901019690934804C0
:100AC0008093470480913404882309F4F2C20E9481
:100AD0007509882309F4F0C0809147049091480477
:100AE000FC01E453FC4F8081882309F0D3C080913E
:100AF000490490914A04009731F5209139043091CE
:100B00003A0480915404882F90E0880F991FFC01CB
:100B1000E952FB4F80819181A901481B590BCA0101
:100B200090933C0480933B0480913B0490913C045F
:100B30000E94E009ECE2F0E080913D0490913E04D7
:100B4000805D80839DC08091490490914A048130EA
:100B5000910549F4ECE2F0E080913F04909140046B
:100B6000805D80838DC08091490490914A048230D9
:100B7000910529F4ECE2F0E08AE3808381C0809162
:100B8000490490914A048330910549F4ECE2F0E085
:100B90008091410490914204805D808371C0809176
:100BA000490490914A048430910549F4ECE2F0E064
:100BB0008091430490914404805D808361C0809162
:100BC000490490914A048530910529F4ECE2F0E063
:100BD00080E2808355C08091490490914A04863018
:100BE000910579F4ECE2F0E080913B0490913C04B3
:100BF0002CE330E0B9010E945E0ACB018F5C808358
:100C00003FC08091490490914A048730910529F4AE
:100C1000ECE2F0E084E2808333C08091490490915B
:100C20004A048830910529F4ECE2F0E08DE08083FD
:100C300027C0ECE2F0E08AE08083EAE2F0E088EDB1
:100C4000808380915404882F90E0FC01E15EFB4F8B
:100C5000108280915404882F90E0FC01E353FB4FF5
:100C6000108281E080932A04109248041092470475
:100C70008FEF9FEF90934A048093490410923704BA
:100C80008091490490914A04019690934A0480937C
:100C900049040FC2ACE2B0E020914704309148040F
:100CA000F901E453FC4F80818C93C9010196909324
:100CB000480480934704FDC1809147049091480403
:100CC000FC01E855FC4F8081882309F068C08091C1
:100CD000490490914A040097B1F4ACE2B0E08091ED
:100CE0005404882F90E0FC01E353FB4F20812F5FD9
:100CF000FC01E353FB4F2083FC01E353FB4F808156
:100D0000805D8C9342C08091490490914A04813067
:100D1000910529F4ECE2F0E08DE0808336C080910B
:100D2000490490914A048230910529F4ECE2F0E004
:100D30008AE080832AC0ECE2F0E087E08083EAE288
:100D4000F0E088ED808380915404882F90E0FC01CE
:100D5000E353FB4F8081833060F080915404882FEF
:100D600090E0FC01E15EFB4F82E0808381E08093B4
:100D70002A0410924804109247048FEF9FEF90933B
:100D80004A04809349041092370480914904909159
:100D90004A04019690934A04809349048AC1ACE2C4
:100DA000B0E02091470430914804F901E855FC4F28
:100DB00080818C93C90101969093480480934704E5
:100DC00078C18091470490914804FC01E15CFC4F9C
:100DD0008081882349F4EAE2F0E088ED8083109274
:100DE00048041092470465C18091470490914804DB
:100DF000009739F4ECE2F0E080915404805D808348
:100E00000BC0ACE2B0E08091470490914804FC0133
:100E1000E15CFC4F80818C93809147049091480461
:100E20000196909348048093470443C1809138040D
:100E3000863008F43EC10E947509882309F40FC169
:100E40008091470490914804FC01E456FD4F808155
:100E5000882309F0F2C08091490490914A040097D8
:100E600009F04DC080912904882339F1809129042B
:100E70008A3018F580912904882F90E0FC01E15E0A
:100E8000FB4F8081813029F4ECE2F0E088E580833B
:100E900030C080912904882F90E0FC01E15EFB4F77
:100EA0008081882329F4ECE2F0E08FE4808321C084
:100EB000ECE2F0E08CE480831CC0809129048A304D
:100EC00029F4ECE2F0E08DE0808313C080912904E6
:100ED0008B3079F4ECE2F0E08AE080831092290410
:100EE0008091490490914A04019690934A0480931A
:100EF0004904809129048F5F80932904DAC080918E
:100F000029048A3028F1809129048A3029F4ECE2FE
:100F1000F0E08DE0808316C0EAE2F0E088ED8083A7
:100F2000ECE2F0E08AE080831092360410924804EC
:100F30001092470410924A04109249041092370408
:100F400010922904809129048F5F80932904B1C0F5
:100F500080912904882F90E0FC01E15EFB4F8081A5
:100F6000813009F064C080913704863091F4ECE25E
:100F7000F0E080E28083809129048F5F80932904D0
:100F80001092370481E090E090934A0480934904E2
:100F900090C08091490490914A048130910529F4D0
:100FA000ECE2F0E083E2808338C0809149049091C4
:100FB0004A048230910539F4ECE2F0E08091290492
:100FC000805D80832AC08091490490914A048330D7
:100FD000910529F4ECE2F0E08AE380831EC0ACE2E4
:100FE000B0E080912904282F30E080913704482F09
:100FF00050E0C901880F991F820F931F880F991F16
:10100000840F951FFC01EF56FB4F8081805D8C9310
:10101000809137048F5F80933704809149049091C9
:101020004A04019690934A048093490442C08091F7
:1010300029048F5F809329043CC0ACE2B0E020918A
:10104000470430914804F901E456FD4F80818C93A8
:10105000C901019690934804809347042AC0809167
:10106000470490914804FC01E350FC4F80818823A1
:1010700079F4ECE2F0E087E08083EAE2F0E088EDEA
:10108000808310924804109247041092380411C0D3
:10109000ACE2B0E02091470430914804F901E350FC
:1010A000FC4F80818C93C9010196909348048093F2
:1010B0004704CF91DF91FF91EF91BF91AF919F9145
:1010C0008F917F916F915F914F913F912F910F90F1
:1010D00000925B000F900FBE0F901F9018951F920B
:1010E0000F920FB60F9200905B000F9211248F9316
:1010F0009F93EF93FF93DF93CF930F92CDB7DEB71C
:10110000EBE2F0E0808189838981882F90E080760E
:1011100090708032910519F081E080932F040F9038
:10112000CF91DF91FF91EF919F918F910F9000925E
:101130005B000F900FBE0F901F9018951F920F929B
:101140000FB60F9200905B000F9211248F939F9324
:10115000EF93FF93DF93CF9300D0CDB7DEB7EBE2F1
:10116000F0E080818A83ECE2F0E0808189838A81EB
:10117000882F90E08C719070009731F48981809372
:10118000530481E080932B040F900F90CF91DF9157
:10119000FF91EF919F918F910F9000925B000F90C4
:1011A0000FBE0F901F9018951F920F920FB60F92BF
:1011B00011242F938F939F93DF93CF93CDB7DEB7F7
:1011C000809145049091460427E0843D920754F4B1
:1011D0008091450490914604019690934604809333
:1011E00045040DC0109246041092450480913904C4
:1011F00090913A04019690933A0480933904CF91E8
:10120000DF919F918F912F910F900FBE0F901F90A4
:1012100018951F920F920FB60F9211242F938F9350
:101220009F93DF93CF93CDB7DEB780914504909124
:10123000460427E0843D920754F480914504909140
:101240004604019690934604809345040DC0109285
:101250004604109245048091390490913A04019615
:1012600090933A0480933904CF91DF919F918F91AD
:101270002F910F900FBE0F901F901895DF93CF9373
:101280000F92CDB7DEB78983109236048091360471
:101290008093350480913504809334048091340424
:1012A00080933304809133048093310489818823AF
:1012B00021F481E08093310414C08981813021F4CC
:1012C00081E0809333040DC08981823021F481E074
:1012D0008093340406C08981833019F481E08093BF
:1012E00035040F90CF91DF910895DF93CF9300D015
:1012F00000D00F92CDB7DEB7809135048823F1F08E
:101300001C821B8215C08B819C81FC01E050FF4F29
:1013100020818B819C81FC01E35BFB4F808128173E
:1013200011F01D8244C08B819C8101969C838B832C
:101330008B819C818630910534F337C01A821982E3
:101340002FC080915404282F30E049815A81C9016F
:10135000880F991F820F931F880F991F840F951F65
:10136000FC01EF56FB4F608180915404282F30E040
:1013700049815A81C901880F991F820F931F880FD5
:10138000991F840F951FFC01EB5AFB4F8081681752
:1013900011F01D820CC089819A8101969A838983FC
:1013A00089819A818630910564F281E08D838D81F7
:1013B0000F900F900F900F900F90CF91DF910895A5
:1013C000DF93CF9300D000D000D0CDB7DEB79E839F
:1013D0008D838D819E812CE330E0B9010E945E0AED
:1013E000CB019C838B838D819E812CE330E0B901FE
:1013F0000E945E0A9A8389838B819C812AE030E077
:10140000B9010E945E0ACB0190933E0480933D0493
:101410008B819C812AE030E0B9010E945E0A9093A2
:10142000400480933F0489819A812AE030E0B90129
:101430000E945E0ACB01909342048093410489810B
:101440009A812AE030E0B9010E945E0A9093440438
:101450008093430426960FB6F894DEBF0FBECDBF2F
:10146000CF91DF910895DF93CF93CDB7DEB7E5E459
:10147000F0E08BE68083E3E4F0E080E88083E7E35C
:10148000F0E080E88083E7E5F0E080EC8083E4E44E
:10149000F0E01082CF91DF910895DF93CF93CDB725
:1014A000DEB7E5E5F0E080E88083EDE6F0E010826D
:1014B000ECE6F0E01082CF91DF91089597FB092EC2
:1014C00007260AD077FD04D00CD006D000201AF4ED
:1014D000709561957F4F0895F6F7909581959F4F90
:1014E0000895AA1BBB1B51E107C0AA1FBB1FA6176B
:1014F000B70710F0A61BB70B881F991F5A95A9F7BD
:0E15000080959095BC01CD010895F894FFCF21
:10150E000102030405060D0ABCADBFEFB0FAC7D049
:10151E00B1E2BCFAB4EBC7D0B1B320B9B0C7B0BA20
:10152E00B8B0FCC7D4C0D4B4CFB4D92E20BFC9BC78
:10153E00C7C0BB20BCB1C5C3C7CFBCBCBFE40D0A7E
:10154E00312E20B9B0C7B0BAB8B0FC20322E20B9B7
:10155E00B0C7B0C3A3B1E220332E20B0FCB8AEC0EA
:10156E00DAB8F0B5E50D0A000D0AC0D4B7C2C0CC8A
:10157E0020C0DFB8F8B5C7BEFABDC0B4CFB4D92EFF
:10158E0020BFC3B9D9B8A520BCF6B8A620C0D4B721
:10159E00C2C7D8C1D6BCBCBFE40D0A000D0AB9B093
:1015AE00C7B0C0BB20BAB8B0FCC7D220BBE7B9B039
:1015BE00C7D420B9F8C8A3B8A620C0D4B7C2C7D81C
:1015CE00C1D6BCBCBFE42E28583ABBE7BFEBC1DF87
:1015DE00204F3ABAF1BEEEC0D6C0BD2053504143A3
:1015EE00453AB5DAB7CEB0A1B1E2290D0A313233A0
:1015FE003435363738390D0A000D0AB9B0C7B0C0C8
:10160E00BB20C3A3C0BB20BBE7B9B0C7D420B9F879
:10161E00C8A3B8A620C0D4B7C2C7D8C1D6BCBCBF59
:10162E00E42E28583ABBE7BFEBC1DF204F3ABAF1A0
:10163E00BEEEC0D6C0BD2053504143453AB5DAB7D1
:10164E00CEB0A1B1E2290D0A3132333435363738F6
:10165E00390D0A000D0AB0FCB8AEC0DA20BAF1B9E5
:10166E00D0B9F8C8A3B8A620C0D4B7C2C7D8C1D6BF
:10167E00BCBCBFE42E284241434B53504143453A34
:10168E00B4D9BDC3C0D4B7C22053504143453A204C
:10169E00B5DAB7CEB0A1B1E2290D0A000D0AA1D874
:1016AE00B0FCB8AEC0DAB8F0B5E5285350414345AA
:1016BE003A20B5DAB7CEB0A1B1E229A1D80D0A28E9
:1016CE004C4F434BB5C820BBE7B9B0C7D420C0D4EC
:1016DE00B7C2BDC320C7D8C1A620B0A1B4C92C20A3
:1016EE00BBE7BFEBC1DFC0CE20BBE7B9B0C7D4208C
:1016FE00BAF1B9D0B9F8C8A320B8F1B7CF290D0AFD
:10170E003132333435363738390D0A0058B9F820AE
:10171E00BBE7B9B0C7D4204C4F434B20C7D8C1A6A6
:10172E0020BFCFB7E12E20BBE7BFEB20BDC3B0A3D8
:10173E002C20BBE7BFEB20B1DDBED73A0D0A005817
:10174E00B9F820BBE7B9B0C7D4C0C720BAF1B9D039
:10175E00B9F8C8A3B8A620C0D4B7C2C7D8C1D6BCE2
:10176E00BCBFE42E20284241434B53504143453ADF
:10177E00B4D9BDC3C0D4B7C22053504143453A205B
:10178E00B5DAB7CEB0A1B1E2290D0A000D0AB9B093
:10179E00C7B0C0BB20BAB8B0FCC7CFBFB4BDC0B4D1
:1017AE00CFB4D92E200D0A000D0ABAF1B9D0B9F86E
:1017BE00C8A3B0A120C6B2B7C8BDC0B4CFB4D92E8D
:1017CE0020C6B2B8B020C8BDBCF63A000D0AB9B0FA
:1017DE00C7B0C0CC20C8B8BCF6B5C7BEFABDC0B441
:1017EE00CFB4D92E20BBE7BFEB20BDC3B0A32C20B6
:1017FE00BBE7BFEB20B1DDBED73A0D0A000D0AB034
:10180E00FCB8AEC0DA20BAF1B9D0B9F8C8A3B0A10D
:10181E0020C6B2B7C8BDC0B4CFB4D92E0D0A00FFD2
:0A182E0000000000000000000001AF
:00000001FF
